:020000041000EA
:1000000000B5324B212058609868022188439860DF
:10001000D860186158612E4B002199600221596106
:100020000121F02299502B49196001219960352056
:1000300000F044F80222904214D00621196600F024
:1000400034F8196E01211966002018661A6600F04E
:100050002CF8196E196E196E052000F02FF8012189
:100060000842F9D1002199601B49196000215960AB
:100070001A491B48016001219960EB211966A021F2
:10008000196600F012F800219960164914480160C1
:100090000121996001BC002800D000471248134993
:1000A000086003C880F30888084703B5996A0420EC
:1000B0000142FBD001200142F8D103BD02B5186610
:1000C0001866FFF7F2FF186E186E02BD00000240BE
:1000D000000000180000070000035F00212200005C
:1000E000F4000018222000A00001001008ED00E03C
:1000F00000000000000000000000000074B24E7A12
:1001000000200420F7010010C3010010C5010010F9
:10011000C1010010C1010010C1010010C101001097
:10012000C1010010C1010010C1010010C701001081
:10013000C1010010C1010010C9010010CB01001065
:10014000CD010010CD010010CD010010CD01001037
:10015000CD010010CD010010CD010010CD01001027
:10016000CD010010CD010010CD010010CD01001017
:10017000CD010010CD010010CD010010CD01001007
:10018000CD010010CD010010CD010010CD010010F7
:10019000CD010010CD010010CD010010CD010010E7
:1001A000CD010010CD010010CD010010CD010010D7
:1001B000CD010010CD010010CD010010CD010010C7
:1001C00000BE00BE00BE00BE00BE00BEEFF3058054
:1001D000103800BEF2EB8871B4AA0010D8AA001043
:1001E0003402001090A31AE700201F49086006C8D7
:1001F00081F3088810471D48006800282FD10DA4FE
:100200000ECC002902D000F012F8F9E71849194A7B
:10021000002000E001C19142FCD1174988471749ED
:1002200088471749884700BEFDE701C901C29A42C5
:10023000FBD37047D8AA0010C0000020180D002082
:1002400030B70010000004200000042030B7001078
:10025000001004200010042000000000704709482E
:1002600004F0D8FD0047000008ED00E0000000D0D9
:10027000180D0020C41A00209D3B0010ED06001050
:10028000593B00105756000006005250ABB3605364
:100290000CA4001006005250861C03021CA400107F
:1002A000060052505422A29D30A400100500525066
:1002B000DE65F46830B70010F8B5C04610B5064CDE
:1002C0002378002B07D1054B002B02D0044800E017
:1002D00000BF0123237010BD200E0020000000008D
:1002E00090890010044B10B5002B03D0034904483B
:1002F00000E000BF10BDC04600000000240E00203A
:100300009089001070B504000D00D0231B065A68B8
:10031000154B1A6015490A780123012002430A701F
:10032000134A12681A4013490A60134A1268934329
:10033000124A1360002208210E2001F031FB002236
:1003400008210F2001F02CFB00220821102001F0D1
:1003500027FB00220821112001F022FB29002000A8
:1003600001F0F8FA70BDC04644140020401400208B
:100370000000054000100540140005401410054021
:1003800010B5164AB023D358012B05D0022B1BD031
:10039000134805F0C5FD16E0124B19780131032210
:1003A0000A401A701B780A330122110099400B0091
:1003B000D021090608694340F02080010340CB6149
:1003C0000649A423CA5010BD074A137802210B43E3
:1003D00013700221014AA423D150F4E70000054024
:1003E00090890010B91A00204014002010B50100B7
:1003F000024B1870024805F0C3FD10BDC40B00206D
:10040000BC89001070B50100022304E05C1C0C4A9A
:10041000D55C1555013B002BF8DA094C21700948D1
:1004200005F0AEFD6178084805F0AAFDA1780748FF
:1004300005F0A6FDE178064805F0A2FD70BDC046B6
:10044000BC0B0020BC890010C8890010D4890010A2
:10045000E08900101138772803D88000124B1B5810
:100460009F46FF2070470220FCE70320FAE70A209E
:10047000F8E70420F6E70520F4E70620F2E70B2072
:10048000F0E70720EEE70820ECE70920EAE70C2078
:10049000E8E70E20E6E70020E4E70F20E2E70D2082
:1004A000E0E70120DEE7C046EC890010F8B5070060
:1004B0000E000024032C11DC3D193A5D210009488F
:1004C00005F05EFD3178084805F05AFD2A7833784A
:1004D0009A4201D00134EDE760B201E001204042D0
:1004E000F8BDC046CC8B0010E08B0010F8B50700BB
:1004F0000E000024072C12DC3D193A5D210009484A
:1005000005F03EFD3178084805F03AFD2A78337849
:100510009A4201D00134EDE7013460B201E00120DC
:100520004042F8BDCC8B0010E08B0010F8B5CE46F1
:10053000474680B507000E0090460024032C11DCCE
:1005400043469B001B19FA189146F95C3519325D38
:100550000B4805F015FD4B461A782B789A420AD1C4
:100560000134EBE70123002B07D0434658B2C0BC4F
:10057000B946B046F8BD0023F5E701204042F6E752
:10058000F88B0010F0B5C64600B586B00500904661
:1005900083235B00994242D8FA234B439C46274B66
:1005A0009C4543D86B46002600965E609E601022F4
:1005B0005A60234A9A6003AC220083CB83C2022292
:1005C0000023934313430393FA221201049230222F
:1005D0009343039363461904090C05910123AB402F
:1005E000184A13600121042001F056FB164AA800A6
:1005F00043199B009E5043199B00944663449E60A0
:10060000DE600599196104995960039B47461F43B1
:1006100040198000875006B080BCB846F0BD182154
:100620000A4B0B4AFF310B4803F09AFA1C210A4B84
:10063000074AFF31074803F093FAC046FEFF010066
:10064000FFFF0000A820054000000540008C0010BE
:10065000F4940010108C0010848C001010B505214B
:100660000A2001F021F905210B2001F01DF90521D7
:100670000C2001F019F905210D2001F015F90521D3
:100680000E2001F011F905210F2001F00DF90521CF
:10069000102001F009F90521112001F005F9D023FE
:1006A0001B06F02292029A62F021890159621A69AE
:1006B0000A40DA610C4C2300012208210E2001F0CF
:1006C0007FF92300012208210F2001F079F923008E
:1006D00001220821102001F073F9230001220821D2
:1006E000112001F06DF910BD0503001070B582B046
:1006F00000F038FE01F0C0F8CC4805F041FC0A20BB
:1007000005F0DAFBCA4B02229B5EAA2B05D06B4692
:10071000DA1DAA23137000211AE06B46DA1D0D239F
:100720001370002108E0C34B9B699B06FBD4107833
:10073000C04B1860013101320029F4D0E7E7BD4B0E
:100740009B699B06FBD41078BA4B186001310132CB
:100750000029F4D0B84805F013FC0025002D36D050
:100760000A2005F0A9FBB34B9B6910210A001A402F
:10077000194240D0B14805F003FCE1B2B04805F0A1
:10078000FFFB0A2005F098FBAE48AF4B020032CBCE
:1007900032C232CB32C2198811809B78937001210A
:1007A00001F030F8012202210020FFF7EBFE0022C9
:1007B00064210120FFF7E6FEA449042001F096FA27
:1007C000C021042001F0ACFCFFF748FF4BE0AA2158
:1007D0009B4805F0D5FB0135C0E7964B9B69DB06CE
:1007E000FBD4944B1B680B7001320131002AF4D00A
:1007F0006B46DC79BEE76B46D91DF7E7944A137860
:100800000133DBB213701378042B5CD0914B1B784F
:10081000002B04D0904B1B78002B00D198E08E4B1E
:100820001B78002B00D04FE18C4A137801218B43B9
:1008300013708A4B1B789B0715D5D0231B065B686A
:10084000F02292021340864A1278002A00D118E260
:10085000002B00D1F4E1824B00221A707F4A1378FA
:1008600002218B4313707D4B1B78002B01D100F0CC
:1008700031FD7C4B1B78002B01D000F02BFD774B1A
:100880001B78DB07D5D5734B1B78002BBED1764B7D
:100890001B78002BBAD1754B1B78022BB6D1744B49
:1008A0001B689B0AFF251D402800FFF7D3FD0400AD
:1008B000020029006F4805F063FBFF2C9ED020004A
:1008C000FFF7A0FD9AE76C4B1A78013AD2B26B4C55
:1008D00021006B48FFF72AFE05002178694805F0E2
:1008E0004FFB6178684805F04BFBA178674805F03D
:1008F00047FBE178664805F043FB6B1C1AD065485E
:1009000005F03EFB4F48644B020032CB32C212CBA3
:1009100012C21B881380012100F074FF5F4802F0AF
:1009200037FA0123504A13704E4A1370484B002285
:100930001A706BE75A4805F023FB4248594B0200F6
:1009400032CB32C232CB32C2012100F05BFFEDE785
:10095000474B1B689B0AFF251D402800FFF77AFDC7
:10096000040002002900434805F00AFBFF2C41D196
:10097000374A13780133DBB213701378012B00D0A0
:100980004DE749494948FFF7B1FDC4B2631EDBB2E8
:10099000082B43D8444D29782A4E300007F04EFFEB
:1009A0000121300000F02EFF2978414805F0E8FAD7
:1009B0003A4802F0EDF9274B00221A702E4B1C70BA
:1009C0002A4B1B78022B19D00124264B1C70394866
:1009D00005F0A6FA1B48384B020062CB62C262CB1C
:1009E00062C21B881380210000F00CFF2B4802F02C
:1009F000CFF916E02000FFF7F9FCB9E72F4805F022
:100A00008FFA10482E4B020032CB32C232CB32C2A8
:100A10001B781370012100F0F5FE02E0294805F073
:100A20007FFA0B4B00221A70F9E6C046B08C00101A
:100A30009C1A002000800340C88C0010E48C001039
:100A4000DC8C0010C80B0020FC8C0010810300100F
:100A5000BC1A0020E80B0020C00B0020401400202E
:100A6000B81A0020B11A0020B21A0020C01A0020C3
:100A700044140020F88B0010B31A0020BC0B002097
:100A8000F00B0020BC890010C8890010D489001028
:100A9000E08900104C8D0010648D0010C409000026
:100AA000188D0010348D0010C40B0020B00B0020F6
:100AB0007C8D0010CC8D0010DC8D0010988D001006
:100AC000B08D0010F88D0010BF4B1B689B0AFF25EE
:100AD0001D402800FFF7BEFC040002002900BB48AF
:100AE00005F04EFAFF2C39D1B94A13780133DBB245
:100AF00013701378012B00D096E6B649B648FFF77D
:100B0000D5FC00282ED001284BD0022861D0032824
:100B10007AD0B24805F004FAB14CB24B220023CB94
:100B200023C223CB23C2196811601B7913710121E1
:100B3000200000F067FEFA20C00002F029F9AA4B5D
:100B4000220023CB23C223CB23C2198811809B7898
:100B500093700121200000F055FE1EE02000FFF7F9
:100B600045FCC1E79B4B1978A04805F009FAA04B5A
:100B700000221A7001219F4B197099489E4B020068
:100B800070CB70C21C6814609C8894809B799371B0
:100B900000F038FE994805F0F3F98D4B00221A70E9
:100BA00042E68C4B1978964805F0EAF9904B002202
:100BB0001A70904B02321A708948924B020032CB65
:100BC00032C232CB32C21B681360012100F01AFE20
:100BD000E3E7804B19788C4805F0D2F9844B00226A
:100BE0001A70844B03321A707D48884B020032CB56
:100BF00032C232CB32C21B781370012100F002FEE8
:100C00007E4805F0BDF9C8E7724B1978804805F0B9
:100C1000B7F90023764A13707E4A1370754B04228D
:100C20001A7001217C4B19706D487C4B020070CB0F
:100C300070C270CB70C21B88138000F0E3FDACE77C
:100C4000774B1A68012319009143764A1160764A5E
:100C500012681340754A1360012208210E2000F02B
:100C60009FFE012208210F2000F09AFE0122082198
:100C7000102000F095FE01220821112000F090FEC6
:100C8000E9E56B4B01221A70E8E55548694B020013
:100C900032CB32C232CB32C21B681360012100F06A
:100CA000B1FD654802F074F8F4E0644805F038F9E5
:100CB0004B48634B020032CB32C232CB32C212CB32
:100CC00012C21B881380012100F09CFD5A4802F0DB
:100CD0005FF85C4A13780133DBB21370DAE05A48EC
:100CE00005F01EF9594805F01BF93D48544B020028
:100CF00032CB32C232CB32C212CB12C21B8813802B
:100D0000012100F07FFD4C4802F042F84D4A137873
:100D10000133DBB21370BDE04D4805F001F94B48DB
:100D200005F0FEF82E48464B020032CB32C232CBE1
:100D300032C212CB12C21B881380012100F062FD67
:100D40003D4802F025F83F4A13780133DBB21370B7
:100D5000A0E0404805F0E4F83C4805F0E1F8204800
:100D6000374B020032CB32C232CB32C212CB12C26C
:100D70001B881380012100F045FD2F4802F008F880
:100D8000304A13780133DBB2137083E0324805F048
:100D9000C7F82E4805F0C4F81148294B020032CBA1
:100DA00032C232CB32C212CB12C21B881380012155
:100DB00000F028FD204801F0EBFF224A13780133B0
:100DC000DBB2137066E0C04644140020F88B0010BC
:100DD000BC1A0020C40B0020EC0B0020488F001030
:100DE000C80B0020688F0010FC8C0010288E0010AB
:100DF000C00B0020C01A0020508E0010648E00101E
:100E0000808E0010A88E0010C48E0010E88E001096
:100E1000048F0010E80B0020B11A00202C8F001066
:100E20000000054000100540140005401410054066
:100E3000B81A0020A48F0010C4090000DC90001034
:100E4000FC900010BF1A0020209100102890001084
:100E50003C91001074910010A0910010DD4805F045
:100E60005FF8DD4805F05CF8DC48DD4B020032CB72
:100E700032C232CB32C212CB12C21B881380012184
:100E800000F0C0FCD74801F083FFD74A1378013344
:100E9000DBB21370D44B1B78032B6CD0D34805F016
:100EA0003FF800F04DFB0028D8D1D14805F038F8C4
:100EB000D04805F035F8012000F056FB002800D09E
:100EC00064E7CD4805F02CF8C34805F029F8C3487D
:100ED000CA4B020032CB32C232CB32C219881180E7
:100EE0009B789370012100F08DFCBE4801F050FF0B
:100EF00000F026FB002800D02BE7BD4805F010F8D5
:100F0000BC4805F00DF8022000F02EFB002800D0B0
:100F100002E7B94805F004F8B94805F001F800F017
:100F200045FB002800D0DAE6B64804F0F9FFB648E1
:100F300004F0F6FFB54B187800F04CFB002800D009
:100F4000B3E6B34804F0ECFFA448B24B020032CB46
:100F500032C232CB32C212CB12C2012100F052FC9B
:100F6000FA20000101F014FF9F4B03221A70AA4BD4
:100F700000221A708EE7A84B1B78012B00D0B7E136
:100F80009648A64B020032CB32C232CB32C212CBD1
:100F900012C21B881380012100F034FCA8E18F48A5
:100FA0009F4B020032CB32C232CB32C21B6813607D
:100FB000012100F027FC8B4801F0EAFE55E099483A
:100FC00004F0AEFF844804F0ABFF8448964B020067
:100FD00032CB32C232CB32C232CB32C21B78137028
:100FE000012100F00FFC7F4801F0D2FE7E4A137809
:100FF0000133DBB2137038E08C4804F091FF76487F
:1010000004F08EFF7548764B020032CB32C232CBF1
:1010100032C212CB12C21B881380012100F0F2FBF6
:10102000704801F0B5FE704A13780133DBB21370DB
:101030001BE07F4804F074FF674804F071FF6748C5
:10104000674B020032CB32C232CB32C212CB12C259
:101050001B881380012100F0D5FB624801F098FE47
:10106000614A13780133DBB213705F4B1B78032B9B
:1010700039D0704804F054FF00F062FA0028D8D14B
:101080006D4804F04DFF6D4804F04AFF012000F068
:101090006BFA0028B0D16A4804F042FF694804F0B6
:1010A0003FFF00F0C1FA002889D1674804F038FFFB
:1010B00000F0EDFB4948654B020032CB32C232CB27
:1010C00032C21B681360012100F09CFBFA20000172
:1010D00001F05EFE00F0E1FB4F4B00221A70424B24
:1010E00003321A70C1E74C4B1B78012B00D004E18E
:1010F0003A484A4B020032CB32C232CB32C212CB18
:1011000012C21B881380012100F07CFBF5E03548FA
:1011100001F03EFE4E4804F003FF3C4B187800F00F
:10112000AFFA002813D14B4804F0FAFE2B484A4B83
:10113000020032CB32C232CB32C21B6813600121B3
:1011400000F060FBFA20000101F022FEDAE04348E3
:1011500004F0E6FE2148424B020032CB32C232CBD1
:1011600032C212CB12C2012100F04CFBCAE01D4872
:1011700001F00EFE3B4804F0D3FE00F0B3FA002865
:1011800013D1394804F0CCFE1448384B020032CB5E
:1011900032C232CB32C21B681360012100F032FB35
:1011A000FA20000101F0F4FDB1E0314804F0B8FE8E
:1011B0000A48304B020032CB32C232CB32C21968FD
:1011C0001160998891809B799371012100F01AFB3D
:1011D0009DE0C046D891001028900010C80B002058
:1011E000FC900010C4090000BF1A0020C08F00103E
:1011F000D48F0010E88F0010089000105490001059
:10120000709000108490001094900010B31A002089
:10121000AC900010B4940010C50B00200492001094
:10122000A48F0010DC920010F892001020930010A0
:101230004C9300102892001040920010549200101D
:101240007892001098920010AC920010C09200109A
:101250006C9300108493001098930010B4930010C6
:10126000D4940010D4930010F09300100894001050
:1012700024940010489400102B492C4804F080FE60
:1012800000232B4A13702B4A13702B4A0121117033
:101290002A4A13702A4804F043FE2A4C2A4B2200A3
:1012A00023CB23C203CB03C2198811809B78937090
:1012B0000121200000F0A6FAFA20C00001F068FD2C
:1012C000224B220013CB13C213CB13C219881180F7
:1012D0009B7893701E4B1B78002B01D1FFF7C3FA4C
:1012E0001C4804F01DFE124B1B78012B00D1CCE4EE
:1012F0000F4B1B78022B00D151E60D4B1B78032BB3
:1013000000D104E70A4B1B78042B00D12FE70123FF
:10131000114A1370114A13700D4B00221A701B787A
:10132000002BA9D00E49A8E7A08C001068940010EB
:10133000C01A0020BF1A0020C50B0020B31A0020DD
:1013400080940010C80B00209C940010FC8C0010AE
:10135000B11A0020888F0010C00B0020E80B00207D
:10136000A88C001010B504F017FEE121090207480F
:1013700002F090F90221082000F096FA02210920DB
:1013800000F092FA024801F003FD10BD0080034016
:1013900088130000F0B583B005000C00002611E0B2
:1013A0006B46DA1D0D2313700021002912D11A4B50
:1013B0009B699B06FBD41078174B186001310132F2
:1013C000F3E70136A64215D2AF5D144B02229B5EB5
:1013D000BB42E5D06B46DA1D177000210029F0D121
:1013E0000D4B9B699B06FBD410780B4B18600131A9
:1013F0000132F3E70A4804F0C3FD0026A64205D2F5
:10140000A95D084804F0BCFD0136F7E70A2004F0A6
:1014100053FD03B0F0BDC046008003409C1A00207D
:10142000C88C0010DC8C0010F0B585B005000C00F5
:1014300001F062FD02000B1E0DDB3748002112187F
:101440004B41002B0DDB002B0FDB17000193334BBF
:1014500000221A601FE0324B324A3F21324802F02C
:101460007FFB01225242314BEDE72D4B2D4A3F21AC
:101470002D4802F075FB02AB07331B780370274E33
:101480003368E95C2A4804F07BFD3368013333603C
:101490000A2001F07DFC214B1B68A34236D2254B6C
:1014A0009B6910210A001A40194210D11B4B186881
:1014B000281802ABD91D002ADDD11E4B9B69DB0623
:1014C000FBD41C4B1B680B7001320131F3E7019A0E
:1014D000194B5B6A9A4209D81748806AB84213D2FE
:1014E0009A4201D0012302E0002300E00023002BF8
:1014F000CED00A2004F0E0FC084B00221A600F480E
:1015000004F00EFDFF2005E00123F0E70A2004F0BF
:10151000D3FC687A05B0F0BD80969800481800208A
:1015200004950010D095001020950010FFFFFF7F5C
:10153000DC8C001000800340004005405C950010EA
:1015400030B587B003A8074B1033020032CB32C24C
:101550000C21FFF71FFF0C216846FFF765FF07B05E
:1015600030BDC0468895001000B589B0030004A8BE
:10157000EF2202700121417010328270C27002713C
:10158000427181710022C2710331017202394172CC
:101590008372C272073303730B31FFF7FBFE0C211A
:1015A00001A8FFF741FF09B000BD000030B587B0CA
:1015B00003A8074B1C33020032CB32C20C21FFF7C9
:1015C000E9FE0C216846FFF72FFF07B030BDC0468B
:1015D0008895001070B588B00200030A04A8EF21B6
:1015E00001700124447010318170C170017141712A
:1015F00084710021C1710625057245728472C3721F
:10160000027341738173FF310A409B180E331A0A2B
:1016100042738373F039FFF7BDFE0C2101A8FFF779
:1016200003FF08B070BD000010B58AB005AA134BC7
:10163000283313CB13C211001A680A601B790B718F
:101640000622002304E005A9895CCB189BB2013275
:101650000E2AF8DD1A0A6946232009180A706A461C
:10166000242152181370133905A8FFF793FE102197
:1016700001A8FFF7D9FE0AB010BDC046889500103A
:1016800030B589B0040A04ABEF221A7001215970F9
:1016900010329A70DA701A715A7199710022DA71E7
:1016A00007251D7205355D729C72D8721A735973C5
:1016B0009A73DA730632002304E004A9895CCB181C
:1016C0009BB201320D2AF8DD1A0A69468A77CB7778
:1016D000102104A8FFF75EFE0C2101A8FFF7A4FE6D
:1016E00009B030BD30B587B003A8074B3C330200CA
:1016F00032CB32C20C21FFF74DFE0C216846FFF7BA
:1017000093FE07B030BDC0468895001000B585B087
:101710000F226A44107000230093013327210248EE
:1017200007F080F805B000BDF00C0020D0B5040033
:101730009626B60000273000390001F0FDFA04209B
:101740002043C0B2FFF7E2FF3000390001F0F4FAA5
:10175000042320009843FFF7D9FF3000390001F03F
:10176000EBFAD0BD70B50F2305009D436DB249B2B1
:101770000D4308231D43EDB204010C4364B21C4326
:10178000E4B22800FFF7C2FF2800FFF7CFFF2000D8
:10179000FFF7BCFF2000FFF7C9FF70BD10B50021A7
:1017A0000120FFF7DFFF10BD10B5002806D1803102
:1017B0000800C0B20021FFF7D5FF10BDC0310800FE
:1017C000F7E710B500210320FFF7CCFF002103202D
:1017D000FFF7C8FF00210320FFF7C4FF002102200C
:1017E000FFF7C0FF00210620FFF7BCFF00212820E3
:1017F000FFF7B8FF00210C20FFF7B4FFFFF7CEFF83
:1018000010BD000070B5050019491A4806F0DEFF4A
:101810000321002000F048F80321012000F044F8E3
:1018200000220121002000F057F8002201210120B0
:1018300000F052F8FFF7C5FFFFF7B0FF002409E002
:10184000210010390120FFF7AFFF285D0121FFF7CC
:1018500089FF01341F2C0ADC0F2CF1DC2100002051
:10186000FFF7A2FF285D0121FFF77CFFF1E770BDC4
:10187000A0860100F00C002010B5132000F0FCF849
:10188000D0231B06802212035A625A6110BDD02356
:101890001B06802212039A617047D0231B06802208
:1018A00012035A617047000010B58300084A94463D
:1018B00063441C6840226240C024144080225201CC
:1018C00013431C60C000034B9C466044416010BD44
:1018D00004C001400040014080000B4B9C46604426
:1018E00000290DD00823002A0CD0042213430268DB
:1018F00053400C2213408022520110430360704772
:101900000023F0E70022F1E704C0014070B50400B5
:10191000D0231B061D68AA000C4BD358002B0AD0FD
:10192000002803D0AD00094BEC5070BD08490D20D4
:1019300000F020FBF6E70028F7D0AD00034BE8509D
:10194000002203490D2000F0FBF9EEE79013002080
:10195000E1190010072303409B00C00899403C3068
:101960008000014BC150704700400140F8B50700AE
:101970000C0016001D00FFF7EDFFFB089B00ED18A3
:101980000720384080008440002E04D080239B0133
:101990001D432C60F8BDC0239B011D432C60F9E75B
:1019A00010B5D0231B061B68002B03D0024BFFF79A
:1019B000DDFF10BD014BFAE730410140004101401D
:1019C00070B514001D00FFF7EBFF2800FFF79EFF26
:1019D000002C00D170BD01210D2000F05DF9F9E768
:1019E000F0B5D6464F464646C0B5D0231B061F6805
:1019F000BA001D4BD3589846002F03D01B4B994675
:101A0000002623E01A4B9946FAE724090135002CF9
:101A10001BD033000833AB4217D90F231A002240E2
:101A200092462342F1D0BB00124A9A580123AB40A0
:101A30001342EAD151462800FFF78CFF4346002BA2
:101A4000E3D051462800C047DFE708361D2E06D8F0
:101A5000F30808339B004A469C583500D7E7E0BCA2
:101A6000BA46B146A846F0BD90130020304101406F
:101A7000004101406C18002010B501238340D022A2
:101A80001206936293610521FFF70EFF10BD00005F
:101A9000034B1B6802201840431E9841C0B2704798
:101AA00000C00640EFF3108072B6034B1B68002B9A
:101AB000FBD0BFF35F8F70472C0100D0BFF35F8F67
:101AC000024B00221A6080F3108870472C0100D06E
:101AD000F8B506000C001500FFF7E4FFE308F7185F
:101AE000F15C07222240012393400B4205D1DBB277
:101AF0000B433B70FFF7E2FFF8BD2100280002F026
:101B0000C9F8F0B583B00600019114001F00FFF77B
:101B1000C9FF00E00134BC420CD8E308F518F35CBF
:101B20000721214001228A401A42F3D1D2B21A433E
:101B30002A7001E001246442FFF7C0FF002C02DBA1
:101B4000200003B0F0BD019B002BF9D0089802F0F3
:101B5000A1F80000002307E0054A9A189200BFF39D
:101B60005F8F0021116001331F2BF5D97047C046EC
:101B700040000034054A1078431CDBB21370172B69
:101B800002D9130010221A707047C046140C0020AE
:101B900000B583B00100044B00931F2318220348B3
:101BA000FFF7AFFF03B000BDF0950010A0130020B9
:101BB000074B9B68103080001950BFF35F8FBFF355
:101BC0005F8F044B0021196082F310887047C04674
:101BD00000ED00E0240100D010B5091A081F0A4BDF
:101BE0009C466144094A914208D8C30706D4401074
:101BF0004005400D064B184380B210BD054B064A08
:101C0000A321064801F0ACFFFC070000FE0F000016
:101C100000E0FFFF0C960010689800103C96001042
:101C200010B5091A04394C08090B08D14905490DAA
:101C3000064A11430180064B2343438010BD054BE8
:101C4000054AAB21054801F08BFFC04600F0FFFFBD
:101C500000F8FFFF709600103C9800103C960010B2
:101C600001238340034A10681840431E9841C0B2C4
:101C70007047C04600E100E0002904D0034B186023
:101C8000034B18607047034B1860FBE780E200E0ED
:101C900000E100E080E100E010B50123834018007E
:101CA000FFF7EAFF10BD000001238340014A1360E3
:101CB0007047C04600E200E0024B9B681030800095
:101CC000C058704700ED00E010B5FFF7F5FF0028A1
:101CD00005D0054BC01A2F2803D8012010BD0020C5
:101CE000FCE70020FAE7C046180C002070B504009D
:101CF0000D00EFF3108672B60C4B1B68002BFBD067
:101D0000BFF35F8F2000FFF7D7FF094B984201D048
:101D1000A84205D1320029002000FFF749FF70BD1D
:101D2000044B054A8621054801F01AFF240100D022
:101D3000CD010010809600109C9800103C96001079
:101D4000F0B5DE4657464E464546E0B589B0814679
:101D500001911500EFF3108A72B6744B1B68002BCB
:101D6000FBD0BFF35F8F724B0027DF57002F40DBA4
:101D70007C00E419A4006F4824180622A2566C4B7C
:101D80001A706D4B9A684B4610339B00D358984697
:101D90001E001B1A2F2B38D9684B98452FD105AE42
:101DA000674B33807B009B46D8198000614B984677
:101DB000404402306349FFF70FFF7080624BB380ED
:101DC000FF23B371F571019B07935F44BF00474444
:101DD0000ECE0EC701231C43A0465246414648463C
:101DE000FFF7E6FE09B0F0BCBB46B246A946A046E6
:101DF000F0BD564B564AD721564801F0B1FE564B1E
:101E0000534ADE21534801F0ABFEC04340440C214D
:101E100003F054F8002912D101239E43B346330046
:101E20000026DA79AA4211D90621595600290CDB7D
:101E30004A00521892001E003E4B9B18F1E7474B98
:101E4000434AEA21434801F08BFE1E00002E3AD09F
:101E500005AB434A1A80813A5A800623F35602930F
:101E6000002B17DA3F4805AB9B469880029A9A717F
:101E7000DD71019A0792301D2100FFF7ADFEB080A1
:101E8000B7717B00DB199B002A4FFF185B4607CB1D
:101E900007C7A2E77800C0198000264BC01804309D
:101EA000321DB388D90A1C2907D15B0559150231A7
:101EB00049005118FFF790FED5E72B4B2B4AB12173
:101EC000244801F04DFE05AE1D4B33807B0002938C
:101ED000D8198000174A9046020042440392901C91
:101EE0001849FFF779FE7080039A101D5946FFF7D5
:101EF00073FEB0801E4B5A464146521A524153431C
:101F00001B0DB371F571019A0792029B9C466744C1
:101F1000BF0047440ECE0EC7114B5A461380813B7B
:101F2000538001231C43A04657E7C046240100D03C
:101F3000BA1A0020180C002000ED00E0CD010010BE
:101F400000A1FFFF480C002001BDFFFFB896001064
:101F5000849800103C960010E0960010089700103E
:101F60000148000001BD00007C970010749800102B
:101F7000AAAA0000F0B5CE46474680B583B0060059
:101F80000D00EFF3108872B6564B1B68002BFBD088
:101F9000BFF35F8F544B9A6834001034A300D758B6
:101FA000524B9F4207D0AF4200D198E00197504B6F
:101FB000FB1A2F2B09D9424639003000FFF7F8FDF4
:101FC00003B0C0BCB946B046F0BD3000FFF748FED4
:101FD000814600213000FFF75FFEBFF35F8FEFF314
:101FE0000581002901D08C4211D10123019C9C4321
:101FF0000022A368AB4212D00622A256002A0DDBB3
:1020000053009B189B002200394CE418F1E736215D
:10201000384B394AFF31394801F0A2FD2200AB426A
:1020200056D106256557002D38DB6B005B199A00E9
:102030002F4B9B189A68A260DA79E27106229A56B1
:10204000A2719B795BB2002B0FDA2D48A0806B0048
:102050005B199B00264AD3182A4A1178997115708A
:1020600049463000FFF718FEA5E7201D6B005B19FD
:102070009B001F4A9B181A1D9B88D90A1C2907D14F
:102080005B055B15023359005118FFF7A5FDDDE72D
:102090001D4B1E4AB121194801F062FD002912D1E1
:1020A000002A0ED0FF239371194B9380154A1378A1
:1020B000A371184B0E49641A644163431B0D1370DE
:1020C000CEE70A4FF2E7201D1349FFF7A9FDC7E746
:1020D0006A21124B084AFF31084801F041FD034FC5
:1020E00069E7C046240100D000ED00E0CD010010FA
:1020F000180C002094970010549800103C96001083
:1021000001BD0000BA1A00207C97001074980010DE
:1021100001BDFFFFAAAA0000520C0020A08C0010F5
:1021200010B5032304009C43064A94466444226885
:102130001840C000FC3383409A43130081400B4396
:10214000236010BD00E400E070B5012101432E4B77
:10215000CB1A2F2B28D8EFF30583002B2BD0EFF3CE
:10216000108C72B6294A1268002AFBD0BFF35F8F29
:10217000274A0400244D641B64416243120D54B28B
:10218000244A92689B00D2588A421BD00022032A1C
:1021900032D853009B189B001B49CB189B795BB22C
:1021A000A3421FD00132F2E7C7211B4B1B4A490053
:1021B0001B4801F0D5FC92211A4B184AFF311848F0
:1021C00001F0CEFC134A92681749D150174B1A7888
:1021D00082711C70BFF35F8F0C4B00221A608CF36E
:1021E000108870BD0D005300991889006918FF26EA
:1021F0008E710F4A8A80E9E7D1210E4B074A4900C8
:10220000074801F0ADFCC046180C0020240100D0A6
:10221000AAAA000000ED00E0C89700102098001066
:102220003C960010F0970010CD010010BA1A002063
:1022300001BDFFFFFC9700100022044B02E004499F
:1022400002C30132072AFAD97047C04600E400E011
:102250008080808000B583B00100064B0093052389
:1022600000220548FFF74DFC002801DB1F23181A48
:1022700003B000BD04980010C21A0020024B9C4617
:1022800061448900016070474000003410B50400CB
:10229000FFF770FC01002000FFF7F0FFFF23237120
:1022A000BFF35F8F10BD10B50400FFF763FC0100A2
:1022B0002000FFF7E3FFFF23237100236371BFF3C7
:1022C0005F8F10BD034B9C46614489000160BFF3E2
:1022D0005F8F70474000003410B504000120FFF705
:1022E00057FC01002000FFF7EDFF10BD70B50500A1
:1022F0000C00080000F000FF0949200000F040FE3B
:10230000FFF738FC074B9C466044800068602C75E2
:10231000D0231B061B786B75A400034BE55070BDE2
:1023200031260010400000345C1800200A4B1A6867
:10233000EFF3108172B61368002BFCD0BFF35F8FF0
:10234000054B1B68BFF35F8F00221A6081F3108872
:1023500040BF002000217047801A002010B50029DE
:1023600022D003681B7B99421ED8174B9C466144C0
:10237000090183689C4661440C684968002A19D0A9
:1023800003681B7B9A4215D883680F4884466244D1
:1023900012019A1810685368020001208B4201D87C
:1023A0000ED00020C0B210BD084B094A3C2109489C
:1023B00001F0D6FB054B064A3C21064801F0D0FB54
:1023C000A242EFD8EDE7C046FFFFFF0FB89900101B
:1023D000109C00108C99001010B500291ED0037BB2
:1023E00099421BD84B005B18033B0468A446634426
:1023F000002919D0002A1DD0914221D0002A25D0D1
:10240000047BA24222D804685000801803382018A8
:102410008170197800291FD11A7010BD104B114A14
:102420006821114801F09CFB104B114A6F310E4896
:1024300001F096FB0F4B0E4A70210B4801F090FB08
:102440000D4B0B4A7121084801F08AFB044B054AE9
:102450006821054801F084FB41701A70DDE7C04631
:10246000DC9900107C9C0010F8990010389A00103C
:10247000589C0010449A0010509A001070B5060045
:102480000D001400002914D0002A14D0806873684D
:102490009847002806D0220029003000FFF79CFF53
:1024A000280007E02A0021003000FFF795FF2000F8
:1024B00000E0100070BD0800FCE70000F0B583B03C
:1024C0000500009201930AAB1C780BAB1F78002C1F
:1024D00026D003685A7B944207D10123002B19D1DF
:1024E000002C3BD1200003B0F0BD002C0CD01A7B97
:1024F000944209D81A6863001B19033BD3189B78D0
:10250000002BEBD00123E9E73E4B3F4A68213F48CF
:1025100001F026FB3E4B3F4A67213F4801F020FB7C
:1025200003689C7B002CDBD012D01A7B94420FD81E
:1025300062001219033A19688C4662445178997303
:10254000002900D1D9730023937053701370C7E72B
:102550002C4B2D4A68212D4801F002FB002C3AD06B
:102560002B681B7B9C4236D82C4BE3181B01AA68B6
:1025700094466344009A1A60019A5A60089A9A60D5
:10258000099ADA602E68002C2BD030D0337B9C4225
:102590002DD863001B19033B326894466344002224
:1025A0009A705A701A70717B22003000FFF766FF34
:1025B0007073844200D095E7287D009A019B00F05B
:1025C00027FD061E01D0002F17D00C9B002B00D139
:1025D00088E71E7086E7124B124A3C210E4801F034
:1025E000BFFA114B114AA521084801F0B9FA054B71
:1025F000054A6821054801F0B3FA2868210000F077
:102600003FFFE2E7DC9900107C9C0010F899001075
:10261000689A0010889C00108C990010FFFFFF0F33
:10262000B8990010109C0010889900106C9C001044
:10263000F0B5DE4657464E464546E0B58BB00990AC
:10264000002308938200B54BD658370052E0B44BB4
:10265000B44A3F21B44801F083FAB44BB44A3C2158
:10266000B44801F07DFA002901D1002869D1002188
:10267000404600F0FBFEA04219D12A686B68069222
:102680000793AB689846EB689A464346002B14D0F4
:10269000002C18D03B681B7B9C4214D8631EFA6840
:1026A000D35C08931B0218433861002015E0A24B4D
:1026B000A24A8E219F4801F053FAA14B9F4A9221D2
:1026C0009C4801F04DFA994B9E4A4121994801F0EE
:1026D00047FA00239A46984600207B68BFF35F8F35
:1026E00000221A6086F310884346002B32D100285E
:1026F00000D10CE100F000FC02000B1EA7DB002063
:102700000021069007917868EFF3108672B6016891
:102710000029FCD0BFF35F8F396888464C7B002CC2
:10272000D7D09AD0097B8C4297D8874965182D015C
:10273000B9688C46654428686968801A99410029FF
:1027400091DD2A686B68099800F062FC00239A46C4
:102750009846C2E7089B1B0223439946514618003E
:10276000C04705000E007A68EFF3108B72B613684D
:1027700059424B41D9B2002BF9D1BFF35F8F002EE4
:102780001EDB002E46DD3B69002B47D04B456DD14B
:1027900000F0B2FB02000B1E6EDB52197341002BDE
:1027A00070DB002B72DB0021049101310391029454
:1027B00051460191414600913800FFF77FFE4CE001
:1027C0003B69002BDDD04B4514D1069A079B521B69
:1027D000B341002B14DB002B16DB002104910131E7
:1027E0000391029451460191414600913800FFF750
:1027F00065FE32E0554B514AA1214E4801F0B0F937
:1028000001225242524BE6E7454B464A3F21464899
:1028100001F0A6F9002E01D1002DB4D13B68002CA7
:1028200050D05A7B944237D1012100294AD1DA7B1A
:10283000002A4DD19A7B002A03D1DA7B002A5AD193
:102840009C73DC73002C5CD03B681B7B9C4258D88B
:10285000FA68013C135D0133135500233B617A682C
:10286000BFF35F8F13608BF3108843E7374B334A16
:10287000A421304801F074F9294B2A4A3F212A4803
:1028800001F06EF901225242314B8AE7244B254A6E
:102890003F21254801F064F9002C0DD01A7B9442A9
:1028A0000AD862001219033A186884466244927882
:1028B000002ABAD00121B8E7264B274A68212748C9
:1028C00001F04EF9264B274AF621244801F048F939
:1028D000002A0AD0197B8A4207D851008A18033A85
:1028E00019688C4662445470A4E71A4B1A4A68214E
:1028F0001A4801F035F91C4B1A4AFB21174801F020
:102900002FF90A4B0F4A41210A4801F029F90BB06F
:10291000F0BCBB46B246A946A046F0BD5C180020FC
:1029200004950010DC9B001020950010B899001051
:10293000109C00108C990010909A0010F49B0010CD
:10294000A89A0010349C0010FFFFFF0FB49A0010EB
:10295000FFFFFF7FDC9900107C9C0010F8990010AD
:10296000F09A0010489C0010149B001010B50C4BFE
:102970005B68002B04D00A210A48FFF77FFC10BDDA
:10298000074C2300084A1021206800F07FFC032038
:1029900000F0A6FA03212000FFF7A8FCEBE7C046F1
:1029A000600C0020801A00205D23001010B5064B3B
:1029B0005B68002B01D0044810BD044B044A5E2123
:1029C000044801F0CDF8C046600C0020289B0010A0
:1029D0001C9C00108C990010F0B5DE4657464E4600
:1029E0004546E0B58BB0804616001F00149B9A4602
:1029F000159B994616AB1B789B461F2302AA94464B
:102A0000634400221A702BE0002809D04246126865
:102A1000127B904204D8421E4146C9688A5C41E05C
:102A2000404B414A4121414801F09AF807984CE057
:102A3000361BAF41002F07DB002F11DA3C4B3D4A1C
:102A40003F213D4801F08CF8012676423B4FF3E7E9
:102A5000374B384A3F21384801F082F8002F4FDBCE
:102A600043465A68EFF3108472B6136859424B41DB
:102A7000D9B20791002BF8D1BFF35F8F1F3302AAA1
:102A80009446634404930023039302934B460193BB
:102A90005346009332003B004046FFF70FFD031EF4
:102AA000B2D1020041464968BFF35F8F00250D6037
:102AB00084F31088002B29D01F2302A98C4663447D
:102AC0001B78002BB2D112021043002B20D05B46A2
:102AD000002B1DD04946D04704000D0003000B43D6
:102AE0001DD00029A4DB00F007FA06000F1EAFDBA3
:102AF00036196F41002FB1DA012676420F4FADE74C
:102B00000B4B0C4A3F210C4801F02AF801204042AF
:102B10000BB0F0BCBB46B246A946A046F0BD079834
:102B2000F6E7C046B8990010349C00108C9900104C
:102B300004950010DC9B001020950010FFFFFF7F24
:102B4000F8B50400002900D162E04268EFF3108577
:102B500072B6136858424341D8B2002BF9D1BFF383
:102B60005F8FCBB22268567BB3421BD10120002875
:102B700048D0206988422BD0090AC9B2002B2ED038
:102B80002068007B83422AD8581EE668305C884261
:102B90002BD000206368BFF35F8F00221A6085F39B
:102BA0001088F8BD002B0DD0167BB3420AD85E000A
:102BB000F618033E1768BC466644B678002ED6D099
:102BC0000120D4E7134B144A6821144800F0C8FFD1
:102BD0002C21134B134AFF31134800F0C1FF134B54
:102BE000134A4121104800F0BBFF1900100000F00B
:102BF00047FC0028CED199210E4B0A4A49000A48C9
:102C000000F0AEFF23698B42C4D100232361C1E7EA
:102C10000020C6E7DC9900107C9C0010F899001099
:102C20004C9B0010C49B00108C990010B8990010A8
:102C3000349C0010709B0010407D7047F0B587B049
:102C400006000F00EFF30583002B1FD1062464421A
:102C5000E517A4197D418D4202D803D1844201D9E0
:102C600000240025002D14DB0494059500F044F9A0
:102C700002000B1E13DBA41A9D41002D17DC14D09B
:102C80003000390000F044F907B0F0BD234801F0EE
:102C900001F8234B234A3F21234800F061FF204BDA
:102CA000204A3F21204800F05BFF002CE8D0FFF7CE
:102CB0007DFE0023029301931C4B0093049A059B15
:102CC000FFF78AFE002818DADAE7002300E0002385
:102CD000002BD5D1164B1A68EFF3108172B613682A
:102CE000002BFCD0BFF35F8F114B1B68BFF35F8FCE
:102CF00000221A6081F3108820BF0499059A0D4BB9
:102D00005B6A9A42E3D80B48806A884203D29A42AF
:102D1000DBD00123DCE70123DAE7C046749B001017
:102D200004950010DC9B0010209500102D2300104E
:102D3000801A00200040054070B504000D0000F02E
:102D4000DBF802000B1E0ADB200029008018594125
:102D500000290ADB00290CDBFFF770FF70BD084B70
:102D6000084A3F21084800F0FBFE01204042074985
:102D7000F0E7034B034A3F21034800F0F1FEC04651
:102D800004950010DC9B001020950010FFFFFF7FD2
:102D900010B5FA2292000023002102F0CBFEFFF7CB
:102DA000CBFF10BD70B584B005000C00EFF30583B8
:102DB000002B1ED1FFF7FAFD002302930193224B53
:102DC00000932A002300FFF707FE061E23DD20BF25
:102DD000FFF7ECFD3100FFF7B3FE1C4B5B6A9C4232
:102DE0002DD81A4A926AAA422CD29C4225D00120A0
:102DF00026E0164B5B6A994209D8144A926A8242CD
:102E000007D2994201D001201AE0002018E00020EA
:102E100016E0012014E00D4B5B6A9C4209D80B4A76
:102E2000926AAA4207D29C4201D0012008E0002009
:102E300006E0002004E0012002E0002000E0002085
:102E400004B070BD0120FBE72D23001000400540B9
:102E500070B5EFF305801038EFF3108C72B61A4B93
:102E60001B68002BFBD0BFF35F8F01221300834050
:102E700016494B6316490B60164909780C00C4408B
:102E8000224214D0114A546A8200134D525994427E
:102E900006D38200114C125999430E4B197007E06A
:102EA0000A4A031D9B0099589950002200E0002215
:102EB000BFF35F8F044B002119608CF31088002A48
:102EC00000D0904770BDC046280100D000400540AA
:102ED0003C700540C11A00208C1A0020801200208E
:102EE00010B50100024A0348FEF7F2FD10BDC046CE
:102EF000A09C0010B71A0020044B5B6A034A906A3A
:102F00001900536A9942F9D17047C0460040054004
:102F1000084B5B6A01E0074B5B6A8B42FBD301E025
:102F2000044B5B6A8B4203D1024B9B6A8342F7D30B
:102F30007047C0460040054070B504000D00FFF723
:102F4000DBFF02000B0020002900801859418B4252
:102F500002D804D1824202D901204042C11700297F
:102F600002DBFFF7D5FF70BD024B034A3F21034848
:102F700000F0F6FD049500103C9D00102095001017
:102F800070B504000D00EFF3108672B61B4B1B6882
:102F9000002BFBD0BFF35F8F002D1CD02000FEF76D
:102FA0008BFE174B83420BD019002000FEF79EFECC
:102FB00001212000FEF770FE0123A340114A136097
:102FC000A400114BE550BFF35F8F0C4B00221A6039
:102FD00086F3108870BDA2000B4B0021D150012256
:102FE000A2400A490B7893430B7005492000FEF775
:102FF000C1FF00212000FEF74FFEE4E7280100D0CA
:10300000512E00103860054080120020C11A0020A7
:10301000F0B5DE4600B584B00400150001921E0034
:103020000293FFF769FF03958E4202D84ED1854285
:103030004CD9EFF3108B72B6274B1B68002BFBD0DB
:10304000BFF35F8F254A17780125A540EBB23B43BC
:103050001370234B5D63221D92000199D150A20091
:103060002049029850501B6A2B4212D11C4B1B6CFA
:103070002B4208D00020BFF35F8F174B00221A604D
:103080008BF3108823E0184B184AC521184800F02C
:1030900067FDFFF731FF8E4214D802D1039B8342B4
:1030A00010D80E4B1B78BB420ED00D4B1D625D63DA
:1030B0001F2004400123A3400E4A1360074B1F70DA
:1030C0001E38D8E70020D6E70120D4E7012004B05D
:1030D00080BCBB46F0BDC046280100D0C11A00200C
:1030E000004005408C1A0020C49C0010209D001058
:1030F000E89C001080E200E0EFF3108C72B60B4BFE
:103100001B68002BFBD0BFF35F8F01238340084A6D
:10311000136208490A789A430A70BFF35F8F034B22
:1031200000221A608CF310887047C046280100D036
:1031300000400540C11A002010B500291ED0037BB5
:1031400099421BD84B005B18033B0468A4466344B8
:10315000002919D0002A1DD0914221D0002A25D063
:10316000047BA24222D8046850008018033820183B
:103170008170197800291FD11A7010BD104B114AA7
:103180006821114800F0ECFC104B114A6F310E48D9
:1031900000F0E6FC0F4B0E4A70210B4800F0E0FCFB
:1031A0000D4B0B4A7121084800F0DAFC044B054A2C
:1031B0006821054800F0D4FC41701A70DDE7C04674
:1031C000DC990010389E0010F8990010389A001011
:1031D000249E0010449A0010509A001070B506000A
:1031E0000D001400002914D0002A14D080687368E0
:1031F0009847002806D0220029003000FFF79CFFE6
:10320000280007E02A0021003000FFF795FF20008A
:1032100000E0100070BD0800FCE7000010B50023BE
:10322000437301338373037BC3730123027B9A428D
:1032300014D9002B0CD0027B934209D85A00D21823
:10324000033A01688C4662440133DBB25370EDE708
:103250000B4B0C4A68210C4800F082FC002A09D074
:10326000924207D8016853009A18033A8A1800233B
:10327000537010BD024B034A6821034800F070FCF4
:10328000DC990010389E0010F899001010B50173F9
:1032900042608360FFF7C2FF10BD000070B50400FC
:1032A000081E00D170BD002934D0237B994231D84B
:1032B0004B005B18033B2268944663445A78002A0B
:1032C000F0D02DD0237B9A422AD853009B18033B81
:1032D00021688C4663445D7800215970002825D010
:1032E000237B984222D843001B18033B21688C465D
:1032F00063440021597001002000FFF76FFF0600B2
:1033000029002000FFF7CAFF020031002000FFF76C
:1033100065FFC7E7084B094A6821094800F020FC0F
:10332000054B064A6821064800F01AFC024B034A86
:103330006821034800F014FCDC990010389E00104E
:10334000F899001070B505000C00160000292FD068
:1033500034D0037B994231D84B005B18033B0268A1
:10336000944663445A78002A2ED19A78002A31D1A3
:103370001978FFF793FF0300002E0AD0EA7B002A9A
:103380002ED1AA7B002A03D1EA7B002A3BD1AC7361
:10339000EC73002B3DD1002C4FD02B7B9C424CD8A2
:1033A0002B6861000C19033C1C190023637070BD6D
:1033B000254B264A3821264800F0D2FB254B264AC9
:1033C0006821264800F0CCFB254B204A3A212048B2
:1033D00000F0C6FB234B1D4A3B211D4800F0C0FBFB
:1033E000002A0AD0297B8A4207D851008A18033A5A
:1033F00029688C4662445470C3E7164B164A68210C
:10340000164800F0ADFB184B104A4221104800F05E
:10341000A7FB002B0BD02A7B934208D843001B1834
:10342000033B2A689446634400229A70B3E7094B31
:10343000094A6821094800F093FB064B064A6821B7
:10344000064800F08DFBC046549D0010109E0010F1
:103450005C9D0010DC990010389E0010F899001057
:103460008C9D0010B49D0010149B001070B50400DA
:103470000A00457B2900FFF765FF6073280070BDD7
:1034800070B50400002967D0437B8B420ED0002921
:1034900011D0037B99420ED84B005B18033B0268A6
:1034A000D0188378002B0CD1002056E00121FFF7C3
:1034B000DDFF012051E0294B294A6821294800F00D
:1034C0004FFB002B20D0227B93421DD85A00D318EB
:1034D000033B2268D2182568EB5C8B421AD0002B84
:1034E0001BD0227B934218D85A00D318033B226882
:1034F000D21853788B4216D0002BF0D11A4B1B4AAE
:103500006B211B4800F02CFB144B154A6821154811
:1035100000F026FB4378137007E0104B104A682137
:10352000104800F01DFB43785370002383704370F4
:1035300001222000FFF706FF0200617B814205D0D7
:103540002000FFF74BFE6073012006E0094B074A9D
:103550007121074800F004FB002070BDDC990010C9
:10356000389E0010F8990010FC970010F89D00108C
:103570005C9D0010D89D001070B5046BE30701D46A
:10358000200070BD02003032C0239B0113430A4A61
:103590001A60456A826AAD01AD18AD02062000F0DE
:1035A000BDF9064901F08AFC0100280001F086FC03
:1035B0000021FFF7C1FCE3E7010300004E0E00000D
:1035C00070B504000E001500FFF7D6FF22002C3264
:1035D000E16A4E40354080235B0113431D60206348
:1035E00070BD000070B505000C00062000F096F9D3
:1035F000C000210001F062FCC60908D00E4B9E42BB
:1036000016D87F23184001303400460800E001241A
:103610006C62AE62002200212800FFF7D1FF062075
:1036200000F07CF98000A101891901F047FC70BD10
:103630000026024CECE7C046FEFF0000FFFF000042
:1036400010B505394901013AD2001143002B09D0C8
:1036500002220A43012B07D0002111436E22FFF7FB
:10366000AFFF10BD0022F4E70421F6E7002909D0DE
:103670000A22064B9C466044434258414000044B9A
:10368000C252704780225200F3E7C0460080FCBF60
:103690009C1A002070B505000C00062000F03EF9D1
:1036A000061E27D0164B9D4226D08022D203154BF2
:1036B0001A60154B1A60154B9B6811009943FAD19B
:1036C00000212800FFF7D2FF21002800FFF78AFF22
:1036D00006000023012208212800FFF7B1FF2A007D
:1036E0002C3280239B01134310221A60084B2B635A
:1036F0000323AB64300070BD80221204D7E7C046BC
:103700000080034000E0004000F0004000C00040A6
:1037100001030000F8B5DE4657464E464546E0B583
:1037200005000F0092460A9A934250D31A0E914612
:103730001E020A9A00233000494601F0FDFB804634
:103740006C006419A400304B9C4664446368834257
:1037500000D260602B1FDBB29B46012B3DD9C023FA
:103760009B012343802212011A60AB00274A99581B
:10377000002907D0506901F0A1FB431C5800C01874
:103780000338FDD253465A0123685A40E0231A40B9
:1037900080235B0123431A605A46012A28D98023DB
:1037A0009B012343802212011A6043466360424614
:1037B00000233000494601F0BFFBAD00134B5851C8
:1037C0000120F0BCBB46B246A946A046F8BD104B4E
:1037D000104A3321104800F0C3F9012FBFD1C02394
:1037E0009B01234303221A60A368DB07FCD5C9E7CA
:1037F0002168794003220A401A60A2680123BB4075
:103800001342FAD0CBE7C04600800040A41300204A
:10381000449E0010909E0010589E001030B583B05A
:103820000C2000F011F9FEF733F900280DD0002329
:1038300004E099002D4A2E4888500133092BF8D90D
:103840002A4B2C4A5A6203B030BD2B4B00229A6798
:1038500000F06CF9294B01221A60274B5B6C012B9D
:10386000FBD1274B03221A60234B9B6B012BFBD10F
:10387000013300930433234A0121234800F054F814
:1038800005230093214A0121214800F04DF8214BE6
:103890000093002202210420FFF73CFF1E4D0095FB
:1038A0002B00002201210520FFF734FF104C00946B
:1038B0002300002200210720FFF72CFF00942300A3
:1038C000002200210820FFF725FF0A4B0093230068
:1038D000002200210920FFF71DFF00952B00002288
:1038E00000210620FFF716FFADE7C046A413002015
:1038F000006CDC021BB70000008000403CB00040C0
:1039000030B00040002F685900800240008C86478C
:1039100000C00240001BB700405973078000014BF4
:10392000C0587047A4130020F0B5C64600B5040087
:103930000E0017001D00374801F0C0FA8046364BD4
:10394000FA18364B9A4239D80100380001F0B6FA1D
:103950000200103A98235B009A4235D86B1E062B62
:1039600038D8069B013B062B34D83F09474537D34F
:103970002D04069B1A0315432368002B36DB284BC6
:103980009C4244D080225201264B1A60264B1A607A
:10399000264B9B6811009943FAD12660A060231D35
:1039A000C02292011A43212313602368002BFCDA02
:1039B000E5600823136080BCB846F0BD1C4B1D4A6F
:1039C00011211D4800F0CCF81C4B1A4A19211A4845
:1039D00000F0C6F81A4B174A1C21174800F0C0F82F
:1039E000184B144A2321144800F0BAF822683F23E8
:1039F0001340B342C3D1A3681B051B0D8342BED144
:103A0000E368EE22D2021340AB42B8D1D3E7802262
:103A10009201B9E7001BB70080E84BD380F8A932C8
:103A200000C0024000E0004000F0004000C0004044
:103A3000A09E0010B89F0010009F0010349F00103F
:103A4000509F00109C9F001080239B000343014A5D
:103A5000D362704700800540024B1A68024B5A60DF
:103A60007047C0464C1800200080054010B5020089
:103A7000164B8020C0051860154B164818600029A9
:103A80000AD0154BE021C9041960002A09D1124B54
:103A9000802212061A6010BD0C4BE021C904196087
:103AA000F3E753019B1A9800801800010B4B186034
:103AB00080235B04984202D3084B094A1A60FFF73F
:103AC000CBFF054B8022D2051A60E4E700B0054029
:103AD00008200140FCFF010000A005404C18002018
:103AE000FFFFFF0010B5030010000C4A8024E4051E
:103AF0001460002B0DD001221343094A094CD461F4
:103B0000094C5C401462516293620021FFF7AEFFE2
:103B100010BD034B0022DA61F7E7C04600B0054054
:103B200000800540D3C007B02D3FF84F064BAA22B6
:103B300012011A602F22DA60044B054A1A60024B08
:103B40005B68002BFBDA70470040024000600240D7
:103B500000B0FA0000BEFDE710B5FFF7FBFF000064
:103B600010B582B00C001900002A0CD0084B002AB6
:103B70000BD00192009323000200064802F000FAE5
:103B80000120FFF7E7FF044BF1E7034AF1E7C046E6
:103B9000C49F0010D49F00107C94001070B52B4B74
:103BA0002B4A1A602B4B2C4A1A602C4B9A682A4BD2
:103BB0009343FAD12A4C01E008CC9847294B9C4208
:103BC000FAD3FFF72BFE234B274A1A60234B9B683F
:103BD000DB43DB01FAD1254B40229A675A671A670B
:103BE000DA66234C09E0234B234A87212348FFF759
:103BF000B7FF2000FEF74AFB0834214B9C4209D254
:103C00002368002BF5D0012BEDD12000FEF74BFBF4
:103C10000834F2E71B4CA1681B4DC022280002F0BB
:103C200049F8A560EFF30583002B00D000BEFDF737
:103C300091FFFEF701FBFEF799FE144C01E008CC62
:103C40009847134B9C42FAD370BDC04600E0004039
:103C5000BFCDFBFE00F00040FE7F3C0000C00040F6
:103C6000000D0020100D0020FFFFFF0100F00140BB
:103C7000F80C002004A000106CA0001024A000107C
:103C8000000D002000ED00E000000020100D0020DD
:103C9000180D00200FB400B583B0084802F040F9B9
:103CA000049B002B07D005A90191180002F048F9E8
:103CB000034802F035F90120FFF74CFF5CA000102B
:103CC000608D0010704710B5002802D00B6849685D
:103CD000984710BD0100002007E083001B185B001F
:103CE000501C08601078C01830380A681378303BD0
:103CF000DBB2092BF1D97047F0B5DE4657464E4688
:103D00004546E0B583B093461F000C9B9A460D9C38
:103D10000E9B99460F9B9B0703D0B8460F000600E9
:103D200022E00192A34688464E46B9460700B442B7
:103D300007D2551C4B4641462020B84701342A0083
:103D4000F5E73D004F465C46019B9B46B146464623
:103D5000B84637002E0007E0013C551C5346185D5D
:103D600043463900B0472A00002CF5D135003E000B
:103D700047460F9B9B0707D4100003B0F0BCBB461F
:103D8000B246A946A046F0BDB0464E46B9462F0001
:103D90005D46531BB342EFD2541C4B464146202094
:103DA000B8472200F5E7F0B5CE46474680B585B066
:103DB000944698460C9D0D9C0EAB1B789946109A24
:103DC000119B129EB7071CD4002B0CD0F7070AD505
:103DD0004F46002F02D10C37374204D0013B02E09E
:103DE00030272F550134944201D21F2CF8D9F70700
:103DF00007D59C4205D21F2C03D830272F550134FC
:103E0000F5E7F70615D5770505D4002C03D09442C5
:103E100024D09C4222D00F9A102A2BD00F9A102A1D
:103E200030D00F9A022A35D01F2C02D830222A55C2
:103E300001341F2C05D84A46002A31D02D222A559C
:103E40000134039602930194009543466246FFF7BE
:103E500053FF05B0C0BCB946B046F0BD621E012C90
:103E600006D00F9F102F01D01400D4E7023CD2E7F8
:103E70001400D0E7B206D1D41F2CCFD878222A550F
:103E80000134D1E7B206CCD51F2CCAD858222A5506
:103E90000134C9E71F2CC7D860322A550134C3E763
:103EA000720703D52B222A550134CAE73207C8D539
:103EB00020222A550134C4E7F0B5DE4657464E4667
:103EC0004546E0B593B081468A46089209931CABFB
:103ED00010CB1B789B461E9D219B9846002C03D13E
:103EE000102342469A4390468023DB0046461E40FC
:103EF00042461A4212D0002C22D000260EE0303367
:103F0000D9B2771C0AAB99552900200000F0D6FFE2
:103F1000AC4216D31F2F14D83E0004002900200005
:103F200000F0CCFFCBB2092BE9D94246920605D569
:103F30004121C918C9B20A39C9B2E2E76121F8E7DB
:103F4000270043460693209B05931F9B04930395EC
:103F50005B46029301970AAB0093099B089A51466E
:103F60004846FFF720FF13B0F0BCBB46B246A94657
:103F7000A046F0BDF0B5DE4657464E464546E0B594
:103F800095B0089009910A920B931E9E1F9C20AB3E
:103F90001B789B46229B9946239D269B9A4633007D
:103FA000234303D1103352469A4392468023DB00C9
:103FB00057461F4052461A4219D0330023432DD092
:103FC000002714E03033DAB27B1C98460CABDA558C
:103FD0004A462B003000210000F0AEFFA5421FD85A
:103FE00019D043461F2B1BD8474606000C004A46F3
:103FF0002B003000210000F09FFFD3B2092BE1D944
:104000005246920605D54122D218D2B20A3AD2B20D
:10401000DAE76122F8E7B145E3D901E000239846E9
:1040200053460693259B0593249B04934B46039389
:104030005B460293434601930CAB00930B9B0A9A99
:1040400009990898FFF7AFFE15B0F0BCBB46B24621
:10405000A946A046F0BD0000F0B5DE4657464E46E4
:104060004546E0B591B083468A460C9298461A9C24
:1040700008941B9D099522002B002000290001F0C7
:10408000E6F9002800D0E5E001225242D74B20009B
:10409000290001F0D7F9002800D0DBE001225242CC
:1040A000D34B2000290001F0B7F9002800D0D1E05F
:1040B00000220023089E3000099D290001F0ACF980
:1040C000002800D0DDE00898099906900791802328
:1040D000DB001E9A1A400D921E9A1A4201D1062345
:1040E0001C930698079904000D000A00060002437D
:1040F00000D1D1E0080D4005400DBE4CA4466044FF
:104100000A03120BBC4B13431F0001F0B3F9BB4A67
:10411000BB4B01F03EF9BB4ABB4B01F013F9040065
:104120000D000022B94B3000390001F002F9B84A05
:10413000B84B01F02EF902000B002000290001F01D
:1041400001F901F0AFF9814601F094F904000D0086
:10415000B14AB24B01F01DF90022B14B01F0F2F867
:1041600001F0A0F90600AF4AAF4B2000290001F092
:1041700010F904000D00300001F07CF9AB4AAC4BA3
:1041800001F007F902000B002000290001F0D1F82E
:1041900004000D0002000B0001F0FBF80A900B91E7
:1041A000A44BF31800261F0522002B002000290035
:1041B00001F0C8F80E900F9122002B000020802102
:1041C000C90501F0B6F804000D0000229A4B0A98C8
:1041D0000B9901F0C0F80022984B01F0B3F80200EF
:1041E0000B000A980B9901F0B6F80022944B01F0ED
:1041F000A9F802000B000A980B9901F0ACF8020034
:104200000B002000290001F09DF802000B000E9821
:104210000F9901F0A0F80022774B01F093F83200DB
:104220003B0001F0B6F806000F0004000D00069AEE
:10423000079B01F007F9002830D001235B429C4620
:10424000E14400227D4B3000390001F084F8040085
:104250000D0023E01E9B04931D9B03931C9B029364
:10426000089A099B0092019343460C9A514658467E
:1042700000F0FCF811B0F0BCBB46B246A946A0461F
:10428000F0BD0023002406930794069680231B06A6
:104290009C46654407951AE7002399464B466333CD
:1042A000C62B1ED804261E9B1B0526D52B00234398
:1042B0000FD0644A644B0698079901F0BBF80028B8
:1042C00079D00022614B0698079901F0A5F80028E3
:1042D00071D01C9B4B4506DD4A46981A431E1C9321
:1042E00003E00526DFE700231C938023DB001E9AF2
:1042F0001A431E920026002399461D9B9E4264D2BB
:104300009F1B02231E9A1A400A921E9A134202D041
:10431000002E00D000274B46002B07D022002B0098
:104320000698079901F017F80690079100220023DC
:104330000898099901F070F8002848D1444B1E9A5A
:104340001340049303971C9B0293069B079C0093C6
:10435000019443460C9A5146584600F087F8002EC7
:1043600000D187E71E9B9B063DD54525441C43464F
:10437000020051462800D8474B46DA179B18534095
:1043800005220592013E0496002203920A3202920F
:104390004A46D00F019000934346220051465846AA
:1043A000FFF78AFD0A9B002B00D163E702005F46FE
:1043B0000C9E1D9D54E01C9B002B9ED00D9B002B42
:1043C0009BD01C9B013B1C9397E7002799E7069C19
:1043D000079D2200290080200006844661440B00CE
:1043E00006920793AAE76525C0E7C046FFFFEF7F67
:1043F000FFFFEFFF01FCFFFF0000F03FFB799F5044
:104400001344D33FB3C8608B288AC63F0000F83FEF
:1044100061436F63A787D23F71A379094F930A4025
:104420000000E03F1655B5BBB16B0240EF39FAFE14
:10443000422EE63FFF03000000002C400000244015
:10444000000018402D431CEBE2361A3F80842E41B9
:10445000FFF7FFFF541C434651462020B847220077
:10446000931BAB42F6D3100004E7C046F0B5DE461E
:1044700057464E464546E0B595B00690079193469F
:104480009946209F1E9A1F9B1000190000F0DFFF25
:10449000002831D101225242BF4B1E981F9900F0D3
:1044A000BBFF002837D101225242BC4B1E981F99F6
:1044B00000F0C8FF00283DD10022B94B1E981F997B
:1044C00000F0C0FF002850D10022B64B1E981F9963
:1044D00000F0A2FF002848D1002200231E981F9957
:1044E00000F09AFF002850D100239846229B5B05DC
:1044F00000D4B6E0002458E0229B0393219B029352
:1045000003230193A84B00934B465A4607990698FC
:10451000FFF7F2FB0EE1229B0393219B02930423FE
:104520000193A24B00934B465A4607990698FFF712
:10453000E3FBFFE00423229A1A4022990B4210D099
:104540009B4B002A0FD004222299039121990291BA
:10455000019200934B465A4607990698FFF7CCFB09
:10456000E8E0944BEDE70322EEE7229B0493219BC6
:10457000039302971E9B1F9C009301944B465A463F
:1045800007990698FFF768FDD4E01E9A1F9B00204C
:10459000002100F0CEFE1E901F9101239846A5E752
:1045A0000CAB30221A55013F01341F2C01D8092FC2
:1045B000F6D81E981F9900F075FF050000F05AFF0D
:1045C00002000B001E981F9900F0B3FEFA007A4B10
:1045D0009B181A685B680A920B9300F0DAFE089049
:1045E000099100F083FF060000F040FF02000B007D
:1045F0000898099900F09DFE0890099100226F4BE0
:1046000000F020FF00282ED00136300000F02EFFF1
:1046100002000B000A980B9900F004FF002801D05B
:1046200001350026002F2CD1280000F023FF0200C6
:104630000B001E981F9900F07CFE06000F00002260
:104640005E4B00F0E9FE002846D100225B4B3000B3
:10465000390000F0F7FE00283ED1EB073CD50135CC
:104660003AE0062746E70022544B0898099900F0E3
:10467000D3FE0028D6D1002E01D0F307D2D50136C3
:10468000D0E7AA461F2C11D8013F0A21300000F0C4
:1046900015FC651C30310CAB19550A21300000F0B7
:1046A0000DFC092E0ED906002C00EBE755461F2CF9
:1046B0000CD87B1E002F09D00CAA302111551F00E9
:1046C0000134F4E72B0055461C00F0E71F2C03D8FB
:1046D0000CAB2E221A5501341F2C10D80A212800A9
:1046E00000F0C4FB661C30310CAB19550A212800C0
:1046F00000F0BCFB051E01D03400EDE734000323BD
:10470000229A1340012B1CD01F2C06D84346002BA5
:1047100032D00CAB2D221A550134229B0393219BDE
:10472000029301940CAB00934B465A4607990698A6
:10473000FFF7E2FA15B0F0BCBB46B246A946A04668
:10474000F0BD219B002B13D04346002B02D10C332C
:1047500013420FD0219B013B2193190003E00CABC6
:1047600030221A5501348C42CED21F2CF7D9CBE718
:104770002199F8E72199F6E7229B5B0704D50CAB5A
:104780002B221A550134C8E7229B1B07C5D50CAB59
:1047900020221A550134C0E7FFFFEFFFFFFFEF7F34
:1047A00065CDCD4165CDCDC188A000108CA0001095
:1047B00080A000107CA0001078A200100000E03F54
:1047C000F0B5DE4657464E464546E0B593B08246C4
:1047D0008B4690461193002900D1EBE20027554605
:1047E000119B1878002800D1E7E2252809D07C1C0D
:1047F00043463A005946A847119B013311932700BD
:10480000EEE7013311930024119A11780B00203B3D
:10481000D8B2102803D88300D048C3589F460B0055
:10482000303BDBB2092B2CD92A292FD000230A9345
:10483000119B1A782E2A39D000239A46119A1378A0
:10484000683BD9B2122976D88B00C549CB589F4610
:1048500001231C4301321192D6E702231C4301328B
:104860001192D1E704231C4301321192CCE70823B3
:104870001C4301321192C7E710231C4301321192ED
:10488000C2E711A8FFF726FA0A90D1E71C9B1A1D70
:104890001C921868002804DB0A90119B01331193C5
:1048A000C6E702231C4343420A93F6E78022D20064
:1048B00014435A1C11925A781300303BDBB2092B77
:1048C00004D92A2A07D000239A46B7E711A8FFF790
:1048D00001FA8246B2E71C9B1A1D1C921868002838
:1048E00004DB8246119B01331193A7E70020F8E710
:1048F00080235B002343511C119152786C2A01D014
:104900001C0018E0C0239B001C430131119112E0F0
:1049100080232343511C11915278682A01D01C0036
:1049200009E0C0231C430131119104E080235B00A6
:104930001C4301321192119B18780300253BDAB217
:10494000532A00D92CE29300864AD3589F468023ED
:104950009B001C4301321192EDE780235B001C4356
:1049600001321192E7E7782809D0582838D06F280B
:1049700038D0622838D010239C430A2600E0102645
:10498000582833D0692803D0642801D00C229443DE
:10499000630501D50122944369282AD0642828D0D0
:1049A000A30500D59FE0E30500D5B8E0630600D479
:1049B000CAE01C9A111D1C911168FF220A4005943F
:1049C0000A9B04935346039302960023019300929B
:1049D00043463A0059462800FFF76EFA070027E0E1
:1049E0001026CDE70826CBE70226C9E7202214438C
:1049F000C8E7A30520D4E30550D4630666D51C9A06
:104A0000111D1C911168FF220A40D317D11859407B
:104A100005940A9B0493534603930296D20F019286
:104A2000009143463A0059462800FFF745FA07002F
:104A3000119B01331193D3E61C9BDA1D07218A4396
:104A4000110008311C91116853689C46DB170C93C8
:104A50000D930C9A0D9B100048400E9062465340F7
:104A60000F930E980F990C9A0D9B801A99410E90F6
:104A70000F9108940A9B07935346069304960023CC
:104A800005936346DA0F02920090019143463A0083
:104A900059462800FFF76EFA0700C9E71C9A111D56
:104AA0001C911268D317D118594005940A9B04939E
:104AB000534603930296D20F0192009143463A0067
:104AC00059462800FFF7F8F90700B1E7230605D596
:104AD0001C9A111D1C910023D25E96E71C9A111D91
:104AE0001C91126891E71C9BDA1D07218A43110073
:104AF00008311C9108940A9B079353460693049629
:104B0000002305930293136854680093019443466D
:104B10003A0059462800FFF72DFA070088E71C9A4B
:104B2000111D1C9105940A9B04935346039302960E
:104B3000002301931368009343463A005946280026
:104B4000FFF7BAF9070073E723060DD51C9A111D6C
:104B50001C9112681204120C31E7C04694A0001098
:104B6000D8A0001024A100101C9A111D1C911268DD
:104B700025E746281AD01C9B0733072293431A00C7
:104B800008321C9204940A9A0392524602925C687C
:104B90001B680093019443463A0059462800FFF7EA
:104BA00065FC0700119B0133119319E620231C4378
:104BB000E1E7672801D0472802D180231B011C436D
:104BC000452801D0472801D120231C431C9B0733D3
:104BD000072293431A0008321C9204940A9A039203
:104BE000524602925C681B680093019443463A0067
:104BF00059462800FFF730FA0700119B0133119343
:104C0000EEE502231A002240924623421FD00124DF
:104C10001C9B1A1D1C927A1C9146187843463A0038
:104C20005946A8475346002B16D1119B01331193C7
:104C30004F46D5E5561C434659462020B847230029
:104C400032005C1C9D42F5D83D001700E0E70123CF
:104C50003A002F000A9DF4E74A46A9460A9D06E05D
:104C6000571C434659462020C84734003A00661C6A
:104C7000A542F5D84D469146D7E71C9B1A1D1C92BC
:104C80001B6899465346002B00D1013B4E4601E07C
:104C9000013613003278002A02D05A1E002BF7D1B9
:104CA0004B46F21A10928023DB0026001E401C4265
:104CB00003D0524501D95346109302231A002240D3
:104CC0000B92234205D03A0037004C46A946554680
:104CD00020E03A00109B5F46B3462E0006E0551CCC
:104CE000434639002020B04723002A005C1C0A9963
:104CF0009942F4D835005E46BB46109437004C46C6
:104D0000A946554606E01D000134561C4346594647
:104D1000C84732002078002804D0002FF4D06B1E42
:104D2000002DF0D117004D460B9B002B03D1119B9A
:104D30000133119354E50A9F109B06E0561C43462D
:104D400059462020A847230032005C1C9F42F5D81A
:104D50001700ECE721231C431C9B1A1D1C921B68A7
:104D6000009305940823049353460393102302935E
:104D70000023019343463A0059462800FFF79CF868
:104D80000700119B013311932AE57C1C43463A002E
:104D900059462520A847119B0133119327001FE591
:104DA0007C1C43463A005946A847119B0133119396
:104DB000270015E50A4B9A4610E5AA46474502D357
:104DC00043465A1E00E03A00434659460020D04769
:104DD000380013B0F0BCBB46B246A946A046F0BDB1
:104DE000C53C001000B585B00290039101210093ED
:104DF00013004A4202A90248FFF7E2FC05B000BDD9
:104E0000C73C001001480421014B1847900C0020BA
:104E1000354E001010B5010018231B88142210888D
:104E2000984710BD10B5010018231B881622108862
:104E3000984710BDF0B5C64600B507000E00002526
:104E40000123984600E00135B5420AD2AC003C1976
:104E50002068FFF7DFFF20600028F4D10023984688
:104E6000F1E7404680BCB846F0BD0000124A936F9F
:104E70009B0815D29066D166002905D0FFE7FFE7B1
:104E8000FFE7516F106F704704B580210906C21704
:104E90005140002800D0C84303F032FD002104BD7A
:104EA000F0B5146E556E576F166FFFF7E3FF14667B
:104EB000556657671667F0BD000000D0114A936F22
:104EC0009B0813D210665166002905D0FFE7FFE763
:104ED000FFE7516F106F704704B5002801D0002024
:104EE000C04303F00DFD002104BDC046F0B5146EB3
:104EF000556E576F166FFFF7E5FF146655665767D7
:104F00001667F0BD000000D094464A4A926F92089E
:104F1000624601D228E0C046F0B5464E346E756E4A
:104F2000776F366F00F020F89446424A1466556653
:104F3000576716676246F0BD94463E4A926F9208E4
:104F4000624601D254E0C046F0B53A4E346E756EFA
:104F5000776F366F00F04CF89446364A1466556603
:104F6000576716676246F0BD002B24DB11D000297D
:104F70003EDA00B5C943404200D1013100F038F8B3
:104F8000C943404200D10131DB43524200D10133D9
:104F900000BD002AEBD1002801D1002905D0002056
:104FA000C90FC90701D1C043410800B503F098FCFF
:104FB0000022002300BD00B500290ADBDB4352427A
:104FC00000D1013300F014F8C943404200D101314F
:104FD00000BDC943404200D10131DB43524200D100
:104FE000013300F005F8DB43524200D1013300BD2C
:104FF000002923D1002B18D1002A0CD0BC460D4F1C
:1050000038667A6600210023FFE7FFE7FFE77A6F43
:10501000386F67467047002801D00748010000B587
:1050200003F05EFC0022002300BD02000B00002004
:1050300000217047000000D0FFFFFFFF002B00D0D1
:10504000BFE0130C28D1002AE7D080B4114F396695
:105050007A66FFE7FFE730B4040C7B6F396F1B04FF
:1050600023433B667A66FFE7FFE7FFE7C04684B26B
:105070007B6F3D6F1B0423433B667A66FFE7FFE7C8
:10508000C04600232C042D0C7A6F386F001969413B
:10509000B0BC7047000000D0F0B594460025140E57
:1050A00001D112020835140F01D112010435940FF9
:1050B00001D192000235D40F01D152000135D40B39
:1050C0000134254F7C66254C3C660E0C93B2FFE7FD
:1050D000FFE7FFE73C6F6643360C7703BE4673433A
:1050E000DF0B5B04C01AB941130C7343DB18C91AF8
:1050F000CE086643360CB64493B273431F0F1B01B0
:10510000C01AB941130C73431F0B1B05C01AB941D8
:10511000860D8F023E436643360C092D24DB520A6E
:105120007243801A7703460A6643360C16235B1BCC
:10513000DE40DF40BF1964466643821B704604357B
:1051400006330100D940A840C01900D30131A24262
:1051500006D20023F0BD0000000000D0FFFFFFFFDB
:10516000121B0130F3D3F1E709277F1BFE40644691
:10517000A2B27243801A00D20139220C7243130C7E
:105180001204821A99410B0070460435133701004E
:10519000F940A840801900D30131002B02D1A2426E
:1051A0000AD2F0BD013000D30131121BFAD2013B0B
:1051B000F8D1A24200D2F0BD013000D30131121B60
:1051C000F7E7F0B51C0C00D080E00CB400251C0AF9
:1051D00004D11B02160E3343120208351C0B04D1F6
:1051E0001B01160F3343120104359C0B04D19B00A5
:1051F000960F334392000235DC0B02D192185B41CB
:1052000001351C00971864410134464F7C66464CBA
:105210003C660E0CFFE7FFE7FFE7C0463C6F6643C6
:10522000360C7703BE4697B27743C01B00D20139D4
:10523000C01B00D201399FB27743C91BC91B170C91
:1052400077437E04FF0B801BB941CE086643360CC2
:105250000C2D33DBB644120B1F053A431B0B97B2E0
:105260007743C01B00D201399FB27743C91B170C8B
:1052700077433E043F0C801BB941860D8F023E43AD
:10528000664329277F1BFE400C3D7746AF40BF1980
:1052900030BCA2B2ABB272437343801A9941220C64
:1052A0007243130C1204801A994102000B0001375B
:1052B000001BA941F9D2781E0021F0BD0C277F1BED
:1052C000FE4077467F0BAF40FF19E0E700245D1CEE
:1052D00007D0144F7D663966FFE7FFE7FFE7FFE77A
:1052E0003C6F95B29EB265436643401BB141150CBD
:1052F0001E0C6543664336042F0C3E432D04401BB1
:10530000B141994204D202000B0020000021F0BDFF
:1053100001D19042F7D3801A994101349942F2D3D6
:10532000F6E70000000000D0FFFFFFFF48404140CB
:10533000484018B41B4B5B68FC46019308BD04DF72
:105340000756001018B4174B1B68FC46019308BDA4
:1053500000DF115600109446134A926F920809D24A
:10536000624618B40F4BDB68FC46019308BD0CDFA6
:10537000C95800100C4AF0B5146E556E576F166F71
:105380006246FFF7EEFF084A1466556657671667D0
:10539000F0BD18B4034B9B68FC46019308BD08DFC1
:1053A0006D5700107C180020000000D0FFB5504061
:1053B0004240504059404B40594000E0FFB5154F26
:1053C0004C00640D03D0BC4204D10C0314D800205F
:1053D000090D09055C00640D03D0BC4204D11C0317
:1053E0000AD800221B0D1B0501264B4009D44B4057
:1053F00003D58B4200D18242FFBD9942FCD190423D
:10540000FFBD0B43DB1803431343F5D0C9434918D1
:10541000FFBD0000FF07000000B5FFF7CFFF804190
:1054200000BDC04600B5FFF7C9FF01D9002000BD8F
:10543000012000BD00B5FFF7B9FF01D9002000BD74
:10544000012000BD00B5FFF7B1FF804100BD012084
:1054500040054A00121804D85A00121801D800203A
:10546000704701207047002070470000002100288D
:1054700005D17047C1174840401AFAD0C90713B583
:10548000064B1B6898470CBC441CA2401005120B2D
:105490000349091B09051943114310BD7C1900205C
:1054A0001F04000010B54C00620D8023D218DB00F1
:1054B000D21A5B057E2A10DD9E3A13DACC17090357
:1054C000490819435242D140640001341532202A60
:1054D00005DAD0400843604310BD002010BD0846E7
:1054E000604310BDC80FC018013810BD18B4044B7C
:1054F0005B6AFC46019308BD24DF795A0010000066
:105500007C18002070B513231C78012C14D0012CBA
:1055100014DC022C02DC1F4A1F4B9A641F48FFF761
:1055200079FC1F4B186070BD99001A481A4A8850C0
:1055300001331F2BF8D9EAE70023FAE71948FFF7F0
:1055400071FC05001848FFF76DFC023803789B00DA
:105550007F2B19DD802229000F4800F0ABFB022CC5
:10556000D7D1124B1A88B5231B029A4209D1104B8E
:105570001A88104B9A4204D10F4B1A880F4B9A424B
:10558000C7D00020FEF786FB0D4B0E4A32210E4895
:10559000FEF7E6FACD5500107C1800204C330000D1
:1055A0007C1900205344000053460000543800008A
:1055B000D8380000494600009C38000059460000D9
:1055C000C8A200105CA300101CA3001007B5604621
:1055D000002800D100BE01880A0A0230DF2AFAD171
:1055E000C9B2820804D3028840880004104300E056
:1055F0000068024A5050039007BD00007C1800204C
:105600000FB403BC0CBCF0B50124E407634000E018
:10561000F0B50C0DCF0F661E3605891B640503D34C
:10562000C943404200D30131640D03D0661CF60A21
:1056300007D0E41B00207F00791C89078912803C79
:1056400024031D0DDF0F6E1E36059B1B6D0503D356
:10565000DB43524200D301336D0D03D06E1CF60ABA
:1056600007D0ED1B00227F007B1C9B079B12803D17
:105670002D032F1B661B58D4A446202E46DA203754
:105680001400BC401D00BD40F24033412A43801845
:105690005941CB0F05D0C943C04300226442504159
:1056A000514162464D0D28D10D0D07D100281FD064
:1056B000241940414941013A0D0DF9D0640006D347
:1056C000013000D30131002C01D140084000013AE3
:1056D0000BD4941CE40A04D112051144DB071944CD
:1056E000F0BDD907204B194300E0D9070020F0BDD9
:1056F0000029DDD1002CDBD1F0BD0132C607400806
:10570000CD0728434908002EE1D0D9E73C2E29DAFD
:10571000203E40371400BC4000D00124F240144326
:105720001A00BB401C43D317ACE7AC46202F08DA65
:1057300020360400B4400D00B540F84039412843FC
:10574000A5E73C2F0CDA203F40360400B44000D0DF
:105750000124F84004430800B1400C43C117EAE7B4
:1057600010001900002494E70000F07FF0B50C0D44
:10577000661E3605891BE60A6405640D02D0651CA9
:10578000ED0A04D0002001210905803C2403A44631
:105790001C0D671E3F05DB1BE70A6405640D02D084
:1057A000651CED0A04D0002201231B05803C240364
:1057B0007740644497B484B296B27443070C7E4336
:1057C000150C6F4380B26843361802D301200004E1
:1057D0003F183004350C00197D41844688B29AB2D6
:1057E00050430C0C62431F0C7C438EB27E439219D3
:1057F00002D301263604A4191604170C3618674183
:1058000001BC81B29AB25143040C62431B0C5C434D
:1058100080B25843121802D3012000042418100447
:10582000130C401863412D185E410020474106BC0F
:1058300088B293B258430C0C6343120C544389B2A0
:1058400051435B1802D301210904641819041A0C8E
:10585000091862416D1856410020474118BCF902F1
:10586000720D1143F0026A0D1043ED020A0D03D1CF
:105870006D1940414941013B124E9B1B7600B342DA
:105880000ED26D0007D301300026714166463543C4
:1058900001D1400840001B05C918E4072144F0BDB0
:1058A0000BDA013306D1013004D101314F0D01D0A3
:1058B0004908F2E7E1070020F0BD0136310500207C
:1058C000EBE70000FF030000F0B51C0D671E3F056D
:1058D000DB1BE70A6405640D02D0661CF60A04D0DF
:1058E000002201231B05803C2403D0252D06002621
:1058F000F6432E661E096E66CE0FF619B4464900B1
:105900004F0D02D07E1CF60A03D000200021403F3C
:105910003F033E1BB600B444013F7F05C91B490845
:105920002E6F013676089C02950D25437543ED13C5
:105930007543AD1301356D10F603761B0CB4CC0224
:10594000450D2C43A2B2B3B25A43270C7B43350C0E
:105950006F43A4B26C431B1902D3012424043F19E2
:105960001C041D0CA4187D4124196D41009A91B2AC
:10597000ACB26143170C7C432B0C5F4392B25A4389
:10598000A41802D301221204BF182204230C5218B7
:105990007B41019C6C431B19520ED9010A434401FF
:1059A000A01A81B2B2B2514303145A43360C734366
:1059B00087B27743D617D21900277E4136049B1948
:1059C0001704160C7F185E417316ED18F3010026BC
:1059D00080337541A90F06D16400690AE8055B0AA6
:1059E000184309D22FE00422944480337541A90A58
:1059F000A8059B0A184326D3404149412404009A34
:105A0000019B0D005543641B4343E41A95B286B2D3
:105A10007543170C7E43030C5F4392B25A43B6188A
:105A200002D301221204BF183204330C52197B41F5
:105A300052429C41002C02D40022013051414008C6
:105A4000CA071043490802B06246D7079210084BB4
:105A5000D218084B9A4203D212058918C919F0BD11
:105A60000020002A01DC3900F0BD01331905F5E7FB
:105A7000FD030000FE070000002200B5203200F008
:105A800004F8080000BD000000220B150AD410B570
:105A9000944600F031F81414013400DA0021CB17D9
:105AA000144C20470020002170476244343A0CD443
:105AB0000C2A07DA04009140904052422032D44030
:105AC000214310BDD843D94310BD203207D40C4622
:105AD0009440524220321141D040204310BD080072
